{
  "_format": "hh-sol-artifact-1",
  "contractName": "AlphaAgentRegistry",
  "sourceName": "contracts/AlphaAgentRegistry.sol",
  "abi": [
    {
      "anonymous": false,
      "inputs": [
        {
          "indexed": true,
          "internalType": "uint256",
          "name": "agentId",
          "type": "uint256"
        }
      ],
      "name": "AgentActivated",
      "type": "event"
    },
    {
      "anonymous": false,
      "inputs": [
        {
          "indexed": true,
          "internalType": "uint256",
          "name": "agentId",
          "type": "uint256"
        }
      ],
      "name": "AgentDeactivated",
      "type": "event"
    },
    {
      "anonymous": false,
      "inputs": [
        {
          "indexed": true,
          "internalType": "uint256",
          "name": "agentId",
          "type": "uint256"
        },
        {
          "indexed": true,
          "internalType": "address",
          "name": "agentAddress",
          "type": "address"
        },
        {
          "indexed": false,
          "internalType": "string",
          "name": "name",
          "type": "string"
        }
      ],
      "name": "AgentRegistered",
      "type": "event"
    },
    {
      "inputs": [
        {
          "internalType": "uint256",
          "name": "agentId",
          "type": "uint256"
        }
      ],
      "name": "activateAgent",
      "outputs": [],
      "stateMutability": "nonpayable",
      "type": "function"
    },
    {
      "inputs": [
        {
          "internalType": "uint256",
          "name": "",
          "type": "uint256"
        }
      ],
      "name": "agents",
      "outputs": [
        {
          "internalType": "address",
          "name": "agentAddress",
          "type": "address"
        },
        {
          "internalType": "string",
          "name": "name",
          "type": "string"
        },
        {
          "internalType": "string",
          "name": "endpoint",
          "type": "string"
        },
        {
          "internalType": "uint256",
          "name": "pricePerCall",
          "type": "uint256"
        },
        {
          "internalType": "bool",
          "name": "active",
          "type": "bool"
        }
      ],
      "stateMutability": "view",
      "type": "function"
    },
    {
      "inputs": [
        {
          "internalType": "address",
          "name": "",
          "type": "address"
        },
        {
          "internalType": "uint256",
          "name": "",
          "type": "uint256"
        }
      ],
      "name": "agentsByOwner",
      "outputs": [
        {
          "internalType": "uint256",
          "name": "",
          "type": "uint256"
        }
      ],
      "stateMutability": "view",
      "type": "function"
    },
    {
      "inputs": [
        {
          "internalType": "uint256",
          "name": "agentId",
          "type": "uint256"
        }
      ],
      "name": "deactivateAgent",
      "outputs": [],
      "stateMutability": "nonpayable",
      "type": "function"
    },
    {
      "inputs": [
        {
          "internalType": "uint256",
          "name": "agentId",
          "type": "uint256"
        }
      ],
      "name": "getAgent",
      "outputs": [
        {
          "components": [
            {
              "internalType": "address",
              "name": "agentAddress",
              "type": "address"
            },
            {
              "internalType": "string",
              "name": "name",
              "type": "string"
            },
            {
              "internalType": "string",
              "name": "endpoint",
              "type": "string"
            },
            {
              "internalType": "uint256",
              "name": "pricePerCall",
              "type": "uint256"
            },
            {
              "internalType": "bool",
              "name": "active",
              "type": "bool"
            }
          ],
          "internalType": "struct AlphaAgentRegistry.Agent",
          "name": "",
          "type": "tuple"
        }
      ],
      "stateMutability": "view",
      "type": "function"
    },
    {
      "inputs": [],
      "name": "getAgents",
      "outputs": [
        {
          "components": [
            {
              "internalType": "address",
              "name": "agentAddress",
              "type": "address"
            },
            {
              "internalType": "string",
              "name": "name",
              "type": "string"
            },
            {
              "internalType": "string",
              "name": "endpoint",
              "type": "string"
            },
            {
              "internalType": "uint256",
              "name": "pricePerCall",
              "type": "uint256"
            },
            {
              "internalType": "bool",
              "name": "active",
              "type": "bool"
            }
          ],
          "internalType": "struct AlphaAgentRegistry.Agent[]",
          "name": "",
          "type": "tuple[]"
        }
      ],
      "stateMutability": "view",
      "type": "function"
    },
    {
      "inputs": [
        {
          "internalType": "address",
          "name": "owner",
          "type": "address"
        }
      ],
      "name": "getAgentsByOwner",
      "outputs": [
        {
          "internalType": "uint256[]",
          "name": "",
          "type": "uint256[]"
        }
      ],
      "stateMutability": "view",
      "type": "function"
    },
    {
      "inputs": [],
      "name": "getAgentsCount",
      "outputs": [
        {
          "internalType": "uint256",
          "name": "",
          "type": "uint256"
        }
      ],
      "stateMutability": "view",
      "type": "function"
    },
    {
      "inputs": [
        {
          "internalType": "string",
          "name": "name",
          "type": "string"
        },
        {
          "internalType": "string",
          "name": "endpoint",
          "type": "string"
        },
        {
          "internalType": "uint256",
          "name": "pricePerCall",
          "type": "uint256"
        }
      ],
      "name": "registerAgent",
      "outputs": [
        {
          "internalType": "uint256",
          "name": "agentId",
          "type": "uint256"
        }
      ],
      "stateMutability": "nonpayable",
      "type": "function"
    }
  ],
  "bytecode": "0x6080604052348015600f57600080fd5b506110128061001f6000396000f3fe608060405234801561001057600080fd5b50600436106100935760003560e01c8063768eb96f11610066578063768eb96f1461011a578063d11257d01461013b578063da6b03bc1461014e578063df2d673914610161578063eac3fda41461016957600080fd5b806311ba6b4a146100985780631ab6f888146100ad5780632de5aaf7146100d6578063513856c8146100f6575b600080fd5b6100ab6100a6366004610b16565b61017e565b005b6100c06100bb366004610b4b565b61027a565b6040516100cd9190610b6d565b60405180910390f35b6100e96100e4366004610b16565b6102e6565b6040516100cd9190610c5a565b610109610104366004610b16565b6104cb565b6040516100cd959493929190610c6d565b61012d610128366004610cbd565b61062b565b6040519081526020016100cd565b6100ab610149366004610b16565b61065c565b61012d61015c366004610d30565b610750565b60005461012d565b61017161095e565b6040516100cd9190610da4565b60005481106101a85760405162461bcd60e51b815260040161019f90610e08565b60405180910390fd5b336001600160a01b0316600082815481106101c5576101c5610e36565b60009182526020909120600590910201546001600160a01b0316146102185760405162461bcd60e51b81526020600482015260096024820152682737ba1037bbb732b960b91b604482015260640161019f565b600080828154811061022c5761022c610e36565b60009182526020822060059190910201600401805460ff19169215159290921790915560405182917fc2fb7f8575ac3990e70361684edfc4d283931ea9a03dfa28766bf376a3934aa291a250565b6001600160a01b0381166000908152600160209081526040918290208054835181840281018401909452808452606093928301828280156102da57602002820191906000526020600020905b8154815260200190600101908083116102c6575b50505050509050919050565b6103236040518060a0016040528060006001600160a01b031681526020016060815260200160608152602001600081526020016000151581525090565b60005482106103445760405162461bcd60e51b815260040161019f90610e08565b6000828154811061035757610357610e36565b60009182526020918290206040805160a0810190915260059092020180546001600160a01b03168252600181018054929391929184019161039790610e4c565b80601f01602080910402602001604051908101604052809291908181526020018280546103c390610e4c565b80156104105780601f106103e557610100808354040283529160200191610410565b820191906000526020600020905b8154815290600101906020018083116103f357829003601f168201915b5050505050815260200160028201805461042990610e4c565b80601f016020809104026020016040519081016040528092919081815260200182805461045590610e4c565b80156104a25780601f10610477576101008083540402835291602001916104a2565b820191906000526020600020905b81548152906001019060200180831161048557829003601f168201915b50505091835250506003820154602082015260049091015460ff16151560409091015292915050565b600081815481106104db57600080fd5b6000918252602090912060059091020180546001820180546001600160a01b0390921693509061050a90610e4c565b80601f016020809104026020016040519081016040528092919081815260200182805461053690610e4c565b80156105835780601f1061055857610100808354040283529160200191610583565b820191906000526020600020905b81548152906001019060200180831161056657829003601f168201915b50505050509080600201805461059890610e4c565b80601f01602080910402602001604051908101604052809291908181526020018280546105c490610e4c565b80156106115780601f106105e657610100808354040283529160200191610611565b820191906000526020600020905b8154815290600101906020018083116105f457829003601f168201915b50505050600383015460049093015491929160ff16905085565b6001602052816000526040600020818154811061064757600080fd5b90600052602060002001600091509150505481565b600054811061067d5760405162461bcd60e51b815260040161019f90610e08565b336001600160a01b03166000828154811061069a5761069a610e36565b60009182526020909120600590910201546001600160a01b0316146106ed5760405162461bcd60e51b81526020600482015260096024820152682737ba1037bbb732b960b91b604482015260640161019f565b60016000828154811061070257610702610e36565b60009182526020822060059190910201600401805460ff19169215159290921790915560405182917fc35f0e749480e262cd9a97d85fbdb391fb8b6f4549fc9e39ca11df61768d280c91a250565b60008461078f5760405162461bcd60e51b815260206004820152600d60248201526c13985b59481c995c5d5a5c9959609a1b604482015260640161019f565b826107d05760405162461bcd60e51b8152602060048201526011602482015270115b991c1bda5b9d081c995c5d5a5c9959607a1b604482015260640161019f565b600080549050905060006040518060a00160405280336001600160a01b0316815260200188888080601f016020809104026020016040519081016040528093929190818152602001838380828437600092019190915250505090825250604080516020601f89018190048102820181019092528781529181019190889088908190840183828082843760009201829052509385525050506020808301879052600160409093018390528454808401865594825290819020835160059095020180546001600160a01b0319166001600160a01b03909516949094178455820151919291908201906108c09082610eed565b50604082015160028201906108d59082610eed565b50606082015160038201556080909101516004909101805460ff19169115159190911790553360008181526001602081815260408084208054938401815584529220018390555182907f0d063c6022bff16d09991a9f91882ffa112f5fb2529136f65eb4c77bbd047e439061094d908a908a90610fad565b60405180910390a395945050505050565b60606000805480602002602001604051908101604052809291908181526020016000905b82821015610b0d5760008481526020908190206040805160a081019091526005850290910180546001600160a01b0316825260018101805492939192918401916109cb90610e4c565b80601f01602080910402602001604051908101604052809291908181526020018280546109f790610e4c565b8015610a445780601f10610a1957610100808354040283529160200191610a44565b820191906000526020600020905b815481529060010190602001808311610a2757829003601f168201915b50505050508152602001600282018054610a5d90610e4c565b80601f0160208091040260200160405190810160405280929190818152602001828054610a8990610e4c565b8015610ad65780601f10610aab57610100808354040283529160200191610ad6565b820191906000526020600020905b815481529060010190602001808311610ab957829003601f168201915b5050509183525050600382015460208083019190915260049092015460ff1615156040909101529082526001929092019101610982565b50505050905090565b600060208284031215610b2857600080fd5b5035919050565b80356001600160a01b0381168114610b4657600080fd5b919050565b600060208284031215610b5d57600080fd5b610b6682610b2f565b9392505050565b6020808252825182820181905260009190848201906040850190845b81811015610ba557835183529284019291840191600101610b89565b50909695505050505050565b6000815180845260005b81811015610bd757602081850181015186830182015201610bbb565b506000602082860101526020601f19601f83011685010191505092915050565b60018060a01b0381511682526000602082015160a06020850152610c1e60a0850182610bb1565b905060408301518482036040860152610c378282610bb1565b915050606083015160608501526080830151151560808501528091505092915050565b602081526000610b666020830184610bf7565b6001600160a01b038616815260a060208201819052600090610c9190830187610bb1565b8281036040840152610ca38187610bb1565b606084019590955250509015156080909101529392505050565b60008060408385031215610cd057600080fd5b610cd983610b2f565b946020939093013593505050565b60008083601f840112610cf957600080fd5b50813567ffffffffffffffff811115610d1157600080fd5b602083019150836020828501011115610d2957600080fd5b9250929050565b600080600080600060608688031215610d4857600080fd5b853567ffffffffffffffff80821115610d6057600080fd5b610d6c89838a01610ce7565b90975095506020880135915080821115610d8557600080fd5b50610d9288828901610ce7565b96999598509660400135949350505050565b600060208083016020845280855180835260408601915060408160051b87010192506020870160005b82811015610dfb57603f19888603018452610de9858351610bf7565b94509285019290850190600101610dcd565b5092979650505050505050565b6020808252601490820152731059d95b9d08191bd95cc81b9bdd08195e1a5cdd60621b604082015260600190565b634e487b7160e01b600052603260045260246000fd5b600181811c90821680610e6057607f821691505b602082108103610e8057634e487b7160e01b600052602260045260246000fd5b50919050565b634e487b7160e01b600052604160045260246000fd5b601f821115610ee8576000816000526020600020601f850160051c81016020861015610ec55750805b601f850160051c820191505b81811015610ee457828155600101610ed1565b5050505b505050565b815167ffffffffffffffff811115610f0757610f07610e86565b610f1b81610f158454610e4c565b84610e9c565b602080601f831160018114610f505760008415610f385750858301515b600019600386901b1c1916600185901b178555610ee4565b600085815260208120601f198616915b82811015610f7f57888601518255948401946001909101908401610f60565b5085821015610f9d5787850151600019600388901b60f8161c191681555b5050505050600190811b01905550565b60208152816020820152818360408301376000818301604090810191909152601f909201601f1916010191905056fea264697066735822122018f57aad864995a7db12e06438648b33e09edbd002945fcb8484662973ff717464736f6c63430008190033",
  "linkReferences": {},
  "deployedLinkReferences": {}
}